1011SIAMESE   01011932000006                                            00000100
1021PERSIAN   02011945000023                                            00000200
1031RAGDOLL   03011952000034                                            00000300
2012PUG       04011982000023                                            00000400
2022LABRADOR  05011995000007                                            00000500
2032BULLDOG   06011970000009                                            00000600
3013PARROT    07011917000012                                            00000700
3023PELICAN   08011918500032                                            00000800
3033LOVEBIRDS 09011919700012                                            00000900
4014GOLD      10011926000021                                            00001000
4024GLOWLIGHT 11011928000014                                            00001100
4034MOLLY     12011930000017                                            00001200
